{
  "contractName": "SellOrderBook",
  "address": "0xDDE7c4dA8E5f9449586B0D60e3Ee60d1AAA63266",
  "abi": [
    {
      "inputs": [
        {
          "internalType": "address",
          "name": "_ssgdTokenAddress",
          "type": "address"
        }
      ],
      "stateMutability": "nonpayable",
      "type": "constructor"
    },
    {
      "anonymous": false,
      "inputs": [
        {
          "indexed": false,
          "internalType": "uint256",
          "name": "id",
          "type": "uint256"
        }
      ],
      "name": "OrderCancelled",
      "type": "event"
    },
    {
      "anonymous": false,
      "inputs": [
        {
          "indexed": false,
          "internalType": "uint256",
          "name": "id",
          "type": "uint256"
        },
        {
          "indexed": false,
          "internalType": "address",
          "name": "buyer",
          "type": "address"
        },
        {
          "indexed": false,
          "internalType": "uint256",
          "name": "amount",
          "type": "uint256"
        }
      ],
      "name": "OrderFulfilled",
      "type": "event"
    },
    {
      "anonymous": false,
      "inputs": [
        {
          "indexed": false,
          "internalType": "uint256",
          "name": "id",
          "type": "uint256"
        },
        {
          "indexed": false,
          "internalType": "address",
          "name": "seller",
          "type": "address"
        },
        {
          "indexed": false,
          "internalType": "address",
          "name": "token",
          "type": "address"
        },
        {
          "indexed": false,
          "internalType": "uint256",
          "name": "amount",
          "type": "uint256"
        },
        {
          "indexed": false,
          "internalType": "uint256",
          "name": "pricePerToken",
          "type": "uint256"
        }
      ],
      "name": "OrderPlaced",
      "type": "event"
    },
    {
      "anonymous": false,
      "inputs": [
        {
          "indexed": true,
          "internalType": "address",
          "name": "previousOwner",
          "type": "address"
        },
        {
          "indexed": true,
          "internalType": "address",
          "name": "newOwner",
          "type": "address"
        }
      ],
      "name": "OwnershipTransferred",
      "type": "event"
    },
    {
      "stateMutability": "payable",
      "type": "fallback",
      "payable": true
    },
    {
      "inputs": [
        {
          "internalType": "address",
          "name": "",
          "type": "address"
        }
      ],
      "name": "allowedTokens",
      "outputs": [
        {
          "internalType": "bool",
          "name": "",
          "type": "bool"
        }
      ],
      "stateMutability": "view",
      "type": "function",
      "constant": true
    },
    {
      "inputs": [
        {
          "internalType": "uint256",
          "name": "",
          "type": "uint256"
        }
      ],
      "name": "histories",
      "outputs": [
        {
          "internalType": "uint256",
          "name": "id",
          "type": "uint256"
        },
        {
          "internalType": "address",
          "name": "seller",
          "type": "address"
        },
        {
          "internalType": "address",
          "name": "buyer",
          "type": "address"
        },
        {
          "internalType": "address",
          "name": "token",
          "type": "address"
        },
        {
          "internalType": "uint256",
          "name": "amount",
          "type": "uint256"
        },
        {
          "internalType": "uint256",
          "name": "pricePerToken",
          "type": "uint256"
        },
        {
          "internalType": "uint256",
          "name": "timestamp",
          "type": "uint256"
        }
      ],
      "stateMutability": "view",
      "type": "function",
      "constant": true
    },
    {
      "inputs": [],
      "name": "nextOrderId",
      "outputs": [
        {
          "internalType": "uint256",
          "name": "",
          "type": "uint256"
        }
      ],
      "stateMutability": "view",
      "type": "function",
      "constant": true
    },
    {
      "inputs": [
        {
          "internalType": "uint256",
          "name": "",
          "type": "uint256"
        }
      ],
      "name": "orders",
      "outputs": [
        {
          "internalType": "uint256",
          "name": "id",
          "type": "uint256"
        },
        {
          "internalType": "address",
          "name": "seller",
          "type": "address"
        },
        {
          "internalType": "address",
          "name": "token",
          "type": "address"
        },
        {
          "internalType": "uint256",
          "name": "amount",
          "type": "uint256"
        },
        {
          "internalType": "uint256",
          "name": "pricePerToken",
          "type": "uint256"
        },
        {
          "internalType": "uint256",
          "name": "timestamp",
          "type": "uint256"
        }
      ],
      "stateMutability": "view",
      "type": "function",
      "constant": true
    },
    {
      "inputs": [],
      "name": "owner",
      "outputs": [
        {
          "internalType": "address",
          "name": "",
          "type": "address"
        }
      ],
      "stateMutability": "view",
      "type": "function",
      "constant": true
    },
    {
      "inputs": [],
      "name": "renounceOwnership",
      "outputs": [],
      "stateMutability": "nonpayable",
      "type": "function"
    },
    {
      "inputs": [],
      "name": "ssgdToken",
      "outputs": [
        {
          "internalType": "contract IERC20",
          "name": "",
          "type": "address"
        }
      ],
      "stateMutability": "view",
      "type": "function",
      "constant": true
    },
    {
      "inputs": [
        {
          "internalType": "address",
          "name": "newOwner",
          "type": "address"
        }
      ],
      "name": "transferOwnership",
      "outputs": [],
      "stateMutability": "nonpayable",
      "type": "function"
    },
    {
      "stateMutability": "payable",
      "type": "receive",
      "payable": true
    },
    {
      "inputs": [
        {
          "internalType": "address",
          "name": "token",
          "type": "address"
        },
        {
          "internalType": "bool",
          "name": "isAllowed",
          "type": "bool"
        }
      ],
      "name": "allowToken",
      "outputs": [],
      "stateMutability": "nonpayable",
      "type": "function"
    },
    {
      "inputs": [
        {
          "internalType": "address",
          "name": "token",
          "type": "address"
        },
        {
          "internalType": "uint256",
          "name": "amount",
          "type": "uint256"
        },
        {
          "internalType": "uint256",
          "name": "pricePerToken",
          "type": "uint256"
        }
      ],
      "name": "placeOrder",
      "outputs": [],
      "stateMutability": "nonpayable",
      "type": "function"
    },
    {
      "inputs": [
        {
          "internalType": "uint256",
          "name": "orderId",
          "type": "uint256"
        }
      ],
      "name": "cancelOrder",
      "outputs": [],
      "stateMutability": "nonpayable",
      "type": "function"
    },
    {
      "inputs": [
        {
          "internalType": "uint256",
          "name": "orderId",
          "type": "uint256"
        },
        {
          "internalType": "uint256",
          "name": "amount",
          "type": "uint256"
        }
      ],
      "name": "fulfillOrder",
      "outputs": [],
      "stateMutability": "nonpayable",
      "type": "function"
    },
    {
      "inputs": [],
      "name": "getAllOrders",
      "outputs": [
        {
          "components": [
            {
              "internalType": "uint256",
              "name": "id",
              "type": "uint256"
            },
            {
              "internalType": "address",
              "name": "seller",
              "type": "address"
            },
            {
              "internalType": "address",
              "name": "token",
              "type": "address"
            },
            {
              "internalType": "uint256",
              "name": "amount",
              "type": "uint256"
            },
            {
              "internalType": "uint256",
              "name": "pricePerToken",
              "type": "uint256"
            },
            {
              "internalType": "uint256",
              "name": "timestamp",
              "type": "uint256"
            }
          ],
          "internalType": "struct SellOrderBook.Order[]",
          "name": "",
          "type": "tuple[]"
        }
      ],
      "stateMutability": "view",
      "type": "function",
      "constant": true
    },
    {
      "inputs": [
        {
          "internalType": "address",
          "name": "seller",
          "type": "address"
        }
      ],
      "name": "getOrdersBySeller",
      "outputs": [
        {
          "components": [
            {
              "internalType": "uint256",
              "name": "id",
              "type": "uint256"
            },
            {
              "internalType": "address",
              "name": "seller",
              "type": "address"
            },
            {
              "internalType": "address",
              "name": "token",
              "type": "address"
            },
            {
              "internalType": "uint256",
              "name": "amount",
              "type": "uint256"
            },
            {
              "internalType": "uint256",
              "name": "pricePerToken",
              "type": "uint256"
            },
            {
              "internalType": "uint256",
              "name": "timestamp",
              "type": "uint256"
            }
          ],
          "internalType": "struct SellOrderBook.Order[]",
          "name": "",
          "type": "tuple[]"
        }
      ],
      "stateMutability": "view",
      "type": "function",
      "constant": true
    },
    {
      "inputs": [
        {
          "internalType": "address",
          "name": "addr",
          "type": "address"
        }
      ],
      "name": "getHistoryByAddress",
      "outputs": [
        {
          "components": [
            {
              "internalType": "uint256",
              "name": "id",
              "type": "uint256"
            },
            {
              "internalType": "address",
              "name": "seller",
              "type": "address"
            },
            {
              "internalType": "address",
              "name": "buyer",
              "type": "address"
            },
            {
              "internalType": "address",
              "name": "token",
              "type": "address"
            },
            {
              "internalType": "uint256",
              "name": "amount",
              "type": "uint256"
            },
            {
              "internalType": "uint256",
              "name": "pricePerToken",
              "type": "uint256"
            },
            {
              "internalType": "uint256",
              "name": "timestamp",
              "type": "uint256"
            }
          ],
          "internalType": "struct SellOrderBook.TradeHistory[]",
          "name": "",
          "type": "tuple[]"
        }
      ],
      "stateMutability": "view",
      "type": "function",
      "constant": true
    }
  ],
  "bytecode": "0x608060405260006004553480156200001657600080fd5b5060405162002c6738038062002c6783398181016040528101906200003c9190620001e4565b60016000819055506200006462000058620000ac60201b60201c565b620000b460201b60201c565b80600560006101000a81548173ffffffffffffffffffffffffffffffffffffffff021916908373ffffffffffffffffffffffffffffffffffffffff1602179055505062000216565b600033905090565b6000600160009054906101000a900473ffffffffffffffffffffffffffffffffffffffff16905081600160006101000a81548173ffffffffffffffffffffffffffffffffffffffff021916908373ffffffffffffffffffffffffffffffffffffffff1602179055508173ffffffffffffffffffffffffffffffffffffffff168173ffffffffffffffffffffffffffffffffffffffff167f8be0079c531659141344cd1fd0a4f28419497f9722a3daafe3b4186f6b6457e060405160405180910390a35050565b600080fd5b600073ffffffffffffffffffffffffffffffffffffffff82169050919050565b6000620001ac826200017f565b9050919050565b620001be816200019f565b8114620001ca57600080fd5b50565b600081519050620001de81620001b3565b92915050565b600060208284031215620001fd57620001fc6200017a565b5b60006200020d84828501620001cd565b91505092915050565b612a4180620002266000396000f3fe6080604052600436106100ec5760003560e01c80637a202cc11161008a578063a85c38ef11610059578063a85c38ef14610329578063b9c7d4801461036b578063e744092e14610394578063f2fde38b146103d1576100f3565b80637a202cc1146102595780637bea0d1c1461029657806384fb8e05146102c15780638da5cb5b146102fe576100f3565b80635aa683de116100c65780635aa683de146101c55780635bc35ae8146101f0578063715018a61461021957806377e16afe14610230576100f3565b80632a58b3301461012e578063514fcac71461015957806356564b7c14610182576100f3565b366100f357005b6040517f08c379a000000000000000000000000000000000000000000000000000000000815260040161012590611ce9565b60405180910390fd5b34801561013a57600080fd5b506101436103fa565b6040516101509190611d22565b60405180910390f35b34801561016557600080fd5b50610180600480360381019061017b9190611d6e565b610400565b005b34801561018e57600080fd5b506101a960048036038101906101a49190611d6e565b6106a8565b6040516101bc9796959493929190611ddc565b60405180910390f35b3480156101d157600080fd5b506101da61075a565b6040516101e79190611eaa565b60405180910390f35b3480156101fc57600080fd5b5061021760048036038101906102129190611f29565b610780565b005b34801561022557600080fd5b5061022e6107e3565b005b34801561023c57600080fd5b5061025760048036038101906102529190611f69565b6107f7565b005b34801561026557600080fd5b50610280600480360381019061027b9190611fbc565b610b3a565b60405161028d9190612131565b60405180910390f35b3480156102a257600080fd5b506102ab610e17565b6040516102b89190612131565b60405180910390f35b3480156102cd57600080fd5b506102e860048036038101906102e39190611fbc565b610f4a565b6040516102f59190612290565b60405180910390f35b34801561030a57600080fd5b50610313611375565b60405161032091906122b2565b60405180910390f35b34801561033557600080fd5b50610350600480360381019061034b9190611d6e565b61139f565b604051610362969594939291906122cd565b60405180910390f35b34801561037757600080fd5b50610392600480360381019061038d919061232e565b61142b565b005b3480156103a057600080fd5b506103bb60048036038101906103b69190611fbc565b61193d565b6040516103c8919061237d565b60405180910390f35b3480156103dd57600080fd5b506103f860048036038101906103f39190611fbc565b61195d565b005b60045481565b6104086119e0565b600280549050811061044f576040517f08c379a0000000000000000000000000000000000000000000000000000000008152600401610446906123e4565b60405180910390fd5b60006002828154811061046557610464612404565b5b906000526020600020906006020190508060010160009054906101000a900473ffffffffffffffffffffffffffffffffffffffff1673ffffffffffffffffffffffffffffffffffffffff163373ffffffffffffffffffffffffffffffffffffffff1614610507576040517f08c379a00000000000000000000000000000000000000000000000000000000081526004016104fe9061247f565b60405180910390fd5b8060020160009054906101000a900473ffffffffffffffffffffffffffffffffffffffff1673ffffffffffffffffffffffffffffffffffffffff1663a9059cbb8260010160009054906101000a900473ffffffffffffffffffffffffffffffffffffffff1683600301546040518363ffffffff1660e01b815260040161058e92919061249f565b6020604051808303816000875af11580156105ad573d6000803e3d6000fd5b505050506040513d601f19601f820116820180604052508101906105d191906124dd565b507f61b9399f2f0f32ca39ce8d7be32caed5ec22fe07a6daba3a467ed479ec606582826040516106019190611d22565b60405180910390a16002828154811061061d5761061c612404565b5b90600052602060002090600602016000808201600090556001820160006101000a81549073ffffffffffffffffffffffffffffffffffffffff02191690556002820160006101000a81549073ffffffffffffffffffffffffffffffffffffffff02191690556003820160009055600482016000905560058201600090555050506106a5611a2f565b50565b600381815481106106b857600080fd5b90600052602060002090600702016000915090508060000154908060010160009054906101000a900473ffffffffffffffffffffffffffffffffffffffff16908060020160009054906101000a900473ffffffffffffffffffffffffffffffffffffffff16908060030160009054906101000a900473ffffffffffffffffffffffffffffffffffffffff16908060040154908060050154908060060154905087565b600560009054906101000a900473ffffffffffffffffffffffffffffffffffffffff1681565b610788611a39565b80600660008473ffffffffffffffffffffffffffffffffffffffff1673ffffffffffffffffffffffffffffffffffffffff16815260200190815260200160002060006101000a81548160ff0219169083151502179055505050565b6107eb611a39565b6107f56000611ab7565b565b6107ff6119e0565b600560009054906101000a900473ffffffffffffffffffffffffffffffffffffffff1673ffffffffffffffffffffffffffffffffffffffff168373ffffffffffffffffffffffffffffffffffffffff160361088f576040517f08c379a000000000000000000000000000000000000000000000000000000000815260040161088690612556565b60405180910390fd5b600082116108d2576040517f08c379a00000000000000000000000000000000000000000000000000000000081526004016108c9906125c2565b60405180910390fd5b60008111610915576040517f08c379a000000000000000000000000000000000000000000000000000000000815260040161090c9061262e565b60405180910390fd5b8273ffffffffffffffffffffffffffffffffffffffff166323b872dd3330856040518463ffffffff1660e01b81526004016109529392919061264e565b6020604051808303816000875af1158015610971573d6000803e3d6000fd5b505050506040513d601f19601f8201168201806040525081019061099591906124dd565b5060026040518060c0016040528060045481526020013373ffffffffffffffffffffffffffffffffffffffff1681526020018573ffffffffffffffffffffffffffffffffffffffff1681526020018481526020018381526020014281525090806001815401808255809150506001900390600052602060002090600602016000909190919091506000820151816000015560208201518160010160006101000a81548173ffffffffffffffffffffffffffffffffffffffff021916908373ffffffffffffffffffffffffffffffffffffffff16021790555060408201518160020160006101000a81548173ffffffffffffffffffffffffffffffffffffffff021916908373ffffffffffffffffffffffffffffffffffffffff160217905550606082015181600301556080820151816004015560a0820151816005015550507f842740ca241c8cea19809d2824591efdd38a7e8e546b25122b975df6598e52c160045433858585604051610b0d959493929190612685565b60405180910390a160046000815480929190610b2890612707565b9190505550610b35611a2f565b505050565b6060600060028054905090506000805b82811015610bec578473ffffffffffffffffffffffffffffffffffffffff1660028281548110610b7d57610b7c612404565b5b906000526020600020906006020160010160009054906101000a900473ffffffffffffffffffffffffffffffffffffffff1673ffffffffffffffffffffffffffffffffffffffff1603610bd9578180610bd590612707565b9250505b8080610be490612707565b915050610b4a565b5060008167ffffffffffffffff811115610c0957610c0861274f565b5b604051908082528060200260200182016040528015610c4257816020015b610c2f611b85565b815260200190600190039081610c275790505b5090506000805b84811015610e0a578673ffffffffffffffffffffffffffffffffffffffff1660028281548110610c7c57610c7b612404565b5b906000526020600020906006020160010160009054906101000a900473ffffffffffffffffffffffffffffffffffffffff1673ffffffffffffffffffffffffffffffffffffffff1603610df75760028181548110610cdd57610cdc612404565b5b90600052602060002090600602016040518060c0016040529081600082015481526020016001820160009054906101000a900473ffffffffffffffffffffffffffffffffffffffff1673ffffffffffffffffffffffffffffffffffffffff1673ffffffffffffffffffffffffffffffffffffffff1681526020016002820160009054906101000a900473ffffffffffffffffffffffffffffffffffffffff1673ffffffffffffffffffffffffffffffffffffffff1673ffffffffffffffffffffffffffffffffffffffff1681526020016003820154815260200160048201548152602001600582015481525050838381518110610ddd57610ddc612404565b5b60200260200101819052508180610df390612707565b9250505b8080610e0290612707565b915050610c49565b5081945050505050919050565b60606002805480602002602001604051908101604052809291908181526020016000905b82821015610f4157838290600052602060002090600602016040518060c0016040529081600082015481526020016001820160009054906101000a900473ffffffffffffffffffffffffffffffffffffffff1673ffffffffffffffffffffffffffffffffffffffff1673ffffffffffffffffffffffffffffffffffffffff1681526020016002820160009054906101000a900473ffffffffffffffffffffffffffffffffffffffff1673ffffffffffffffffffffffffffffffffffffffff1673ffffffffffffffffffffffffffffffffffffffff168152602001600382015481526020016004820154815260200160058201548152505081526020019060010190610e3b565b50505050905090565b6060600060038054905090506000805b82811015611078578473ffffffffffffffffffffffffffffffffffffffff1660038281548110610f8d57610f8c612404565b5b906000526020600020906007020160010160009054906101000a900473ffffffffffffffffffffffffffffffffffffffff1673ffffffffffffffffffffffffffffffffffffffff16148061105157508473ffffffffffffffffffffffffffffffffffffffff166003828154811061100757611006612404565b5b906000526020600020906007020160020160009054906101000a900473ffffffffffffffffffffffffffffffffffffffff1673ffffffffffffffffffffffffffffffffffffffff16145b1561106557818061106190612707565b9250505b808061107090612707565b915050610f5a565b5060008167ffffffffffffffff8111156110955761109461274f565b5b6040519080825280602002602001820160405280156110ce57816020015b6110bb611be7565b8152602001906001900390816110b35790505b5090506000805b84811015611368578673ffffffffffffffffffffffffffffffffffffffff166003828154811061110857611107612404565b5b906000526020600020906007020160010160009054906101000a900473ffffffffffffffffffffffffffffffffffffffff1673ffffffffffffffffffffffffffffffffffffffff1614806111cc57508673ffffffffffffffffffffffffffffffffffffffff166003828154811061118257611181612404565b5b906000526020600020906007020160020160009054906101000a900473ffffffffffffffffffffffffffffffffffffffff1673ffffffffffffffffffffffffffffffffffffffff16145b1561135557600381815481106111e5576111e4612404565b5b90600052602060002090600702016040518060e0016040529081600082015481526020016001820160009054906101000a900473ffffffffffffffffffffffffffffffffffffffff1673ffffffffffffffffffffffffffffffffffffffff1673ffffffffffffffffffffffffffffffffffffffff1681526020016002820160009054906101000a900473ffffffffffffffffffffffffffffffffffffffff1673ffffffffffffffffffffffffffffffffffffffff1673ffffffffffffffffffffffffffffffffffffffff1681526020016003820160009054906101000a900473ffffffffffffffffffffffffffffffffffffffff1673ffffffffffffffffffffffffffffffffffffffff1673ffffffffffffffffffffffffffffffffffffffff168152602001600482015481526020016005820154815260200160068201548152505083838151811061133b5761133a612404565b5b6020026020010181905250818061135190612707565b9250505b808061136090612707565b9150506110d5565b5081945050505050919050565b6000600160009054906101000a900473ffffffffffffffffffffffffffffffffffffffff16905090565b600281815481106113af57600080fd5b90600052602060002090600602016000915090508060000154908060010160009054906101000a900473ffffffffffffffffffffffffffffffffffffffff16908060020160009054906101000a900473ffffffffffffffffffffffffffffffffffffffff16908060030154908060040154908060050154905086565b6114336119e0565b600280549050821061147a576040517f08c379a0000000000000000000000000000000000000000000000000000000008152600401611471906123e4565b60405180910390fd5b6000600283815481106114905761148f612404565b5b9060005260206000209060060201905080600301548211156114e7576040517f08c379a00000000000000000000000000000000000000000000000000000000081526004016114de906127f0565b60405180910390fd5b60008160040154836114f99190612810565b9050600560009054906101000a900473ffffffffffffffffffffffffffffffffffffffff1673ffffffffffffffffffffffffffffffffffffffff166323b872dd338460010160009054906101000a900473ffffffffffffffffffffffffffffffffffffffff16846040518463ffffffff1660e01b815260040161157e9392919061264e565b6020604051808303816000875af115801561159d573d6000803e3d6000fd5b505050506040513d601f19601f820116820180604052508101906115c191906124dd565b508160020160009054906101000a900473ffffffffffffffffffffffffffffffffffffffff1673ffffffffffffffffffffffffffffffffffffffff1663a9059cbb33856040518363ffffffff1660e01b815260040161162192919061249f565b6020604051808303816000875af1158015611640573d6000803e3d6000fd5b505050506040513d601f19601f8201168201806040525081019061166491906124dd565b507fcb3dc2a21e2f5a2d47f2012a02e3d088725e88da087b62c693f98dedac2733348433856040516116989392919061286a565b60405180910390a160036040518060e001604052808681526020018460010160009054906101000a900473ffffffffffffffffffffffffffffffffffffffff1673ffffffffffffffffffffffffffffffffffffffff1681526020013373ffffffffffffffffffffffffffffffffffffffff1681526020018460020160009054906101000a900473ffffffffffffffffffffffffffffffffffffffff1673ffffffffffffffffffffffffffffffffffffffff16815260200184600301548152602001846004015481526020014281525090806001815401808255809150506001900390600052602060002090600702016000909190919091506000820151816000015560208201518160010160006101000a81548173ffffffffffffffffffffffffffffffffffffffff021916908373ffffffffffffffffffffffffffffffffffffffff16021790555060408201518160020160006101000a81548173ffffffffffffffffffffffffffffffffffffffff021916908373ffffffffffffffffffffffffffffffffffffffff16021790555060608201518160030160006101000a81548173ffffffffffffffffffffffffffffffffffffffff021916908373ffffffffffffffffffffffffffffffffffffffff1602179055506080820151816004015560a0820151816005015560c082015181600601555050600082600301540361192f57600284815481106118af576118ae612404565b5b90600052602060002090600602016000808201600090556001820160006101000a81549073ffffffffffffffffffffffffffffffffffffffff02191690556002820160006101000a81549073ffffffffffffffffffffffffffffffffffffffff021916905560038201600090556004820160009055600582016000905550505b5050611939611a2f565b5050565b60066020528060005260406000206000915054906101000a900460ff1681565b611965611a39565b600073ffffffffffffffffffffffffffffffffffffffff168173ffffffffffffffffffffffffffffffffffffffff16036119d4576040517f08c379a00000000000000000000000000000000000000000000000000000000081526004016119cb90612913565b60405180910390fd5b6119dd81611ab7565b50565b600260005403611a25576040517f08c379a0000000000000000000000000000000000000000000000000000000008152600401611a1c9061297f565b60405180910390fd5b6002600081905550565b6001600081905550565b611a41611b7d565b73ffffffffffffffffffffffffffffffffffffffff16611a5f611375565b73ffffffffffffffffffffffffffffffffffffffff1614611ab5576040517f08c379a0000000000000000000000000000000000000000000000000000000008152600401611aac906129eb565b60405180910390fd5b565b6000600160009054906101000a900473ffffffffffffffffffffffffffffffffffffffff16905081600160006101000a81548173ffffffffffffffffffffffffffffffffffffffff021916908373ffffffffffffffffffffffffffffffffffffffff1602179055508173ffffffffffffffffffffffffffffffffffffffff168173ffffffffffffffffffffffffffffffffffffffff167f8be0079c531659141344cd1fd0a4f28419497f9722a3daafe3b4186f6b6457e060405160405180910390a35050565b600033905090565b6040518060c0016040528060008152602001600073ffffffffffffffffffffffffffffffffffffffff168152602001600073ffffffffffffffffffffffffffffffffffffffff1681526020016000815260200160008152602001600081525090565b6040518060e0016040528060008152602001600073ffffffffffffffffffffffffffffffffffffffff168152602001600073ffffffffffffffffffffffffffffffffffffffff168152602001600073ffffffffffffffffffffffffffffffffffffffff1681526020016000815260200160008152602001600081525090565b600082825260208201905092915050565b7f446f206e6f742073656e642045746865722077697468206461746120746f207460008201527f68697320636f6e74726163742e00000000000000000000000000000000000000602082015250565b6000611cd3602d83611c66565b9150611cde82611c77565b604082019050919050565b60006020820190508181036000830152611d0281611cc6565b9050919050565b6000819050919050565b611d1c81611d09565b82525050565b6000602082019050611d376000830184611d13565b92915050565b600080fd5b611d4b81611d09565b8114611d5657600080fd5b50565b600081359050611d6881611d42565b92915050565b600060208284031215611d8457611d83611d3d565b5b6000611d9284828501611d59565b91505092915050565b600073ffffffffffffffffffffffffffffffffffffffff82169050919050565b6000611dc682611d9b565b9050919050565b611dd681611dbb565b82525050565b600060e082019050611df1600083018a611d13565b611dfe6020830189611dcd565b611e0b6040830188611dcd565b611e186060830187611dcd565b611e256080830186611d13565b611e3260a0830185611d13565b611e3f60c0830184611d13565b98975050505050505050565b6000819050919050565b6000611e70611e6b611e6684611d9b565b611e4b565b611d9b565b9050919050565b6000611e8282611e55565b9050919050565b6000611e9482611e77565b9050919050565b611ea481611e89565b82525050565b6000602082019050611ebf6000830184611e9b565b92915050565b611ece81611dbb565b8114611ed957600080fd5b50565b600081359050611eeb81611ec5565b92915050565b60008115159050919050565b611f0681611ef1565b8114611f1157600080fd5b50565b600081359050611f2381611efd565b92915050565b60008060408385031215611f4057611f3f611d3d565b5b6000611f4e85828601611edc565b9250506020611f5f85828601611f14565b9150509250929050565b600080600060608486031215611f8257611f81611d3d565b5b6000611f9086828701611edc565b9350506020611fa186828701611d59565b9250506040611fb286828701611d59565b9150509250925092565b600060208284031215611fd257611fd1611d3d565b5b6000611fe084828501611edc565b91505092915050565b600081519050919050565b600082825260208201905092915050565b6000819050602082019050919050565b61201e81611d09565b82525050565b61202d81611dbb565b82525050565b60c0820160008201516120496000850182612015565b50602082015161205c6020850182612024565b50604082015161206f6040850182612024565b5060608201516120826060850182612015565b5060808201516120956080850182612015565b5060a08201516120a860a0850182612015565b50505050565b60006120ba8383612033565b60c08301905092915050565b6000602082019050919050565b60006120de82611fe9565b6120e88185611ff4565b93506120f383612005565b8060005b8381101561212457815161210b88826120ae565b9750612116836120c6565b9250506001810190506120f7565b5085935050505092915050565b6000602082019050818103600083015261214b81846120d3565b905092915050565b600081519050919050565b600082825260208201905092915050565b6000819050602082019050919050565b60e0820160008201516121956000850182612015565b5060208201516121a86020850182612024565b5060408201516121bb6040850182612024565b5060608201516121ce6060850182612024565b5060808201516121e16080850182612015565b5060a08201516121f460a0850182612015565b5060c082015161220760c0850182612015565b50505050565b6000612219838361217f565b60e08301905092915050565b6000602082019050919050565b600061223d82612153565b612247818561215e565b93506122528361216f565b8060005b8381101561228357815161226a888261220d565b975061227583612225565b925050600181019050612256565b5085935050505092915050565b600060208201905081810360008301526122aa8184612232565b905092915050565b60006020820190506122c76000830184611dcd565b92915050565b600060c0820190506122e26000830189611d13565b6122ef6020830188611dcd565b6122fc6040830187611dcd565b6123096060830186611d13565b6123166080830185611d13565b61232360a0830184611d13565b979650505050505050565b6000806040838503121561234557612344611d3d565b5b600061235385828601611d59565b925050602061236485828601611d59565b9150509250929050565b61237781611ef1565b82525050565b6000602082019050612392600083018461236e565b92915050565b7f496e76616c6964206f7264657220494400000000000000000000000000000000600082015250565b60006123ce601083611c66565b91506123d982612398565b602082019050919050565b600060208201905081810360008301526123fd816123c1565b9050919050565b7f4e487b7100000000000000000000000000000000000000000000000000000000600052603260045260246000fd5b7f4f6e6c792073656c6c65722063616e2063616e63656c00000000000000000000600082015250565b6000612469601683611c66565b915061247482612433565b602082019050919050565b600060208201905081810360008301526124988161245c565b9050919050565b60006040820190506124b46000830185611dcd565b6124c16020830184611d13565b9392505050565b6000815190506124d781611efd565b92915050565b6000602082840312156124f3576124f2611d3d565b5b6000612501848285016124c8565b91505092915050565b7f43616e6e6f742073656c6c2053534744206469726563746c7900000000000000600082015250565b6000612540601983611c66565b915061254b8261250a565b602082019050919050565b6000602082019050818103600083015261256f81612533565b9050919050565b7f416d6f756e74206d7573742062652067726561746572207468616e2030000000600082015250565b60006125ac601d83611c66565b91506125b782612576565b602082019050919050565b600060208201905081810360008301526125db8161259f565b9050919050565b7f5072696365206d7573742062652067726561746572207468616e203000000000600082015250565b6000612618601c83611c66565b9150612623826125e2565b602082019050919050565b600060208201905081810360008301526126478161260b565b9050919050565b60006060820190506126636000830186611dcd565b6126706020830185611dcd565b61267d6040830184611d13565b949350505050565b600060a08201905061269a6000830188611d13565b6126a76020830187611dcd565b6126b46040830186611dcd565b6126c16060830185611d13565b6126ce6080830184611d13565b9695505050505050565b7f4e487b7100000000000000000000000000000000000000000000000000000000600052601160045260246000fd5b600061271282611d09565b91507fffffffffffffffffffffffffffffffffffffffffffffffffffffffffffffffff8203612744576127436126d8565b5b600182019050919050565b7f4e487b7100000000000000000000000000000000000000000000000000000000600052604160045260246000fd5b7f496e73756666696369656e74206f7264657220616d6f756e7420617661696c6160008201527f626c650000000000000000000000000000000000000000000000000000000000602082015250565b60006127da602383611c66565b91506127e58261277e565b604082019050919050565b60006020820190508181036000830152612809816127cd565b9050919050565b600061281b82611d09565b915061282683611d09565b9250817fffffffffffffffffffffffffffffffffffffffffffffffffffffffffffffffff048311821515161561285f5761285e6126d8565b5b828202905092915050565b600060608201905061287f6000830186611d13565b61288c6020830185611dcd565b6128996040830184611d13565b949350505050565b7f4f776e61626c653a206e6577206f776e657220697320746865207a65726f206160008201527f6464726573730000000000000000000000000000000000000000000000000000602082015250565b60006128fd602683611c66565b9150612908826128a1565b604082019050919050565b6000602082019050818103600083015261292c816128f0565b9050919050565b7f5265656e7472616e637947756172643a207265656e7472616e742063616c6c00600082015250565b6000612969601f83611c66565b915061297482612933565b602082019050919050565b600060208201905081810360008301526129988161295c565b9050919050565b7f4f776e61626c653a2063616c6c6572206973206e6f7420746865206f776e6572600082015250565b60006129d5602083611c66565b91506129e08261299f565b602082019050919050565b60006020820190508181036000830152612a04816129c8565b905091905056fea2646970667358221220f948f59186bb0c21a738525b1b042e6d87b506692ec6b10e2c31d28c68c8b44264736f6c634300080d0033",
  "immutableReferences": {},
  "source": "// SPDX-License-Identifier: MIT\r\npragma solidity ^0.8.0;\r\n\r\nimport \"@openzeppelin/contracts/token/ERC20/IERC20.sol\";\r\nimport \"@openzeppelin/contracts/security/ReentrancyGuard.sol\";\r\nimport \"@openzeppelin/contracts/access/Ownable.sol\";\r\n\r\ncontract SellOrderBook is ReentrancyGuard, Ownable {\r\n    struct Order {\r\n        uint256 id;\r\n        address seller;\r\n        address token;\r\n        uint256 amount;\r\n        uint256 pricePerToken; // price in SSGD\r\n        uint256 timestamp;\r\n    }\r\n\r\n    struct TradeHistory {\r\n        uint256 id;\r\n        address seller;\r\n        address buyer;\r\n        address token;\r\n        uint256 amount;\r\n        uint256 pricePerToken;\r\n        uint256 timestamp;\r\n    }\r\n\r\n    Order[] public orders;\r\n    TradeHistory[] public histories;\r\n    uint256 public nextOrderId = 0;\r\n    IERC20 public ssgdToken; // The SSGD token interface\r\n    mapping(address => bool) public allowedTokens;\r\n\r\n    event OrderPlaced(\r\n        uint256 id,\r\n        address seller,\r\n        address token,\r\n        uint256 amount,\r\n        uint256 pricePerToken\r\n    );\r\n    event OrderCancelled(uint256 id);\r\n    event OrderFulfilled(uint256 id, address buyer, uint256 amount);\r\n\r\n    constructor(address _ssgdTokenAddress) {\r\n        ssgdToken = IERC20(_ssgdTokenAddress); // Initialize the SSGD token contract\r\n    }\r\n\r\n    function allowToken(address token, bool isAllowed) external onlyOwner {\r\n        allowedTokens[token] = isAllowed;\r\n    }\r\n\r\n    function placeOrder(\r\n        address token,\r\n        uint256 amount,\r\n        uint256 pricePerToken\r\n    ) external nonReentrant {\r\n        require(token != address(ssgdToken), \"Cannot sell SSGD directly\"); // Prevent selling SSGD itself\r\n        require(amount > 0, \"Amount must be greater than 0\");\r\n        require(pricePerToken > 0, \"Price must be greater than 0\");\r\n\r\n        IERC20(token).transferFrom(msg.sender, address(this), amount);\r\n\r\n        orders.push(\r\n            Order({\r\n                id: nextOrderId,\r\n                seller: msg.sender,\r\n                token: token,\r\n                amount: amount,\r\n                pricePerToken: pricePerToken,\r\n                timestamp: block.timestamp\r\n            })\r\n        );\r\n\r\n        emit OrderPlaced(nextOrderId, msg.sender, token, amount, pricePerToken);\r\n        nextOrderId++;\r\n    }\r\n\r\n    function cancelOrder(uint256 orderId) external nonReentrant {\r\n        require(orderId < orders.length, \"Invalid order ID\");\r\n        Order storage order = orders[orderId];\r\n        require(msg.sender == order.seller, \"Only seller can cancel\");\r\n\r\n        IERC20(order.token).transfer(order.seller, order.amount);\r\n        emit OrderCancelled(orderId);\r\n\r\n        delete orders[orderId];\r\n    }\r\n\r\n    function fulfillOrder(\r\n        uint256 orderId,\r\n        uint256 amount\r\n    ) external nonReentrant {\r\n        require(orderId < orders.length, \"Invalid order ID\");\r\n        Order storage order = orders[orderId];\r\n        require(amount <= order.amount, \"Insufficient order amount available\");\r\n\r\n        uint256 totalCost = amount * order.pricePerToken;\r\n        ssgdToken.transferFrom(msg.sender, order.seller, totalCost);\r\n        IERC20(order.token).transfer(msg.sender, amount);\r\n\r\n        emit OrderFulfilled(orderId, msg.sender, amount);\r\n\r\n        histories.push(\r\n            TradeHistory({\r\n                id: orderId,\r\n                seller: order.seller,\r\n                buyer: msg.sender,\r\n                token: order.token,\r\n                amount: order.amount,\r\n                pricePerToken: order.pricePerToken,\r\n                timestamp: block.timestamp\r\n            })\r\n        );\r\n\r\n        if (order.amount == 0) {\r\n            delete orders[orderId];\r\n        }\r\n    }\r\n\r\n    function getAllOrders() external view returns (Order[] memory) {\r\n        return orders;\r\n    }\r\n\r\n    function getOrdersBySeller(\r\n        address seller\r\n    ) external view returns (Order[] memory) {\r\n        uint256 totalOrders = orders.length;\r\n        uint256 count = 0;\r\n\r\n        for (uint256 i = 0; i < totalOrders; i++) {\r\n            if (orders[i].seller == seller) {\r\n                count++;\r\n            }\r\n        }\r\n\r\n        Order[] memory sellerOrders = new Order[](count);\r\n        uint256 j = 0;\r\n        for (uint256 i = 0; i < totalOrders; i++) {\r\n            if (orders[i].seller == seller) {\r\n                sellerOrders[j] = orders[i];\r\n                j++;\r\n            }\r\n        }\r\n\r\n        return sellerOrders;\r\n    }\r\n\r\n    function getHistoryByAddress(\r\n        address addr\r\n    ) external view returns (TradeHistory[] memory) {\r\n        uint256 totalHis = histories.length;\r\n        uint256 count = 0;\r\n\r\n        for (uint256 i = 0; i < totalHis; i++) {\r\n            if (histories[i].seller == addr || histories[i].buyer == addr) {\r\n                count++;\r\n            }\r\n        }\r\n\r\n        TradeHistory[] memory addrHistories = new TradeHistory[](count);\r\n        uint256 j = 0;\r\n        for (uint256 i = 0; i < totalHis; i++) {\r\n            if (histories[i].seller == addr || histories[i].buyer == addr) {\r\n                addrHistories[j] = histories[i];\r\n                j++;\r\n            }\r\n        }\r\n\r\n        return addrHistories;\r\n    }\r\n\r\n    receive() external payable { }\r\n\r\n    fallback() external payable {\r\n        revert(\"Do not send Ether with data to this contract.\");\r\n    }\r\n}\r\n",
  "sourcePath": "E:\\Projects\\real-estate-contract\\contracts\\orderbook.sol",
  "compiler": {
    "name": "solc",
    "version": "0.8.13+commit.abaa5c0e.Emscripten.clang"
  },
  "schemaVersion": "3.4.16",
  "updatedAt": "2024-04-25T08:27:08.088Z",
  "networkType": "ethereum",
  "devdoc": {
    "kind": "dev",
    "methods": {
      "owner()": {
        "details": "Returns the address of the current owner."
      },
      "renounceOwnership()": {
        "details": "Leaves the contract without owner. It will not be possible to call `onlyOwner` functions. Can only be called by the current owner. NOTE: Renouncing ownership will leave the contract without an owner, thereby disabling any functionality that is only available to the owner."
      },
      "transferOwnership(address)": {
        "details": "Transfers ownership of the contract to a new account (`newOwner`). Can only be called by the current owner."
      }
    },
    "version": 1
  },
  "userdoc": {
    "kind": "user",
    "methods": {},
    "version": 1
  }
}