{
  "contractName": "SellOrderBook",
  "address": "0x6A4Fc65e99a158004E407C3f687e3f761b376849",
  "abi": [
    {
      "inputs": [
        {
          "internalType": "address",
          "name": "_ssgdTokenAddress",
          "type": "address"
        }
      ],
      "stateMutability": "nonpayable",
      "type": "constructor"
    },
    {
      "anonymous": false,
      "inputs": [
        {
          "indexed": false,
          "internalType": "uint256",
          "name": "id",
          "type": "uint256"
        }
      ],
      "name": "OrderCancelled",
      "type": "event"
    },
    {
      "anonymous": false,
      "inputs": [
        {
          "indexed": false,
          "internalType": "uint256",
          "name": "id",
          "type": "uint256"
        },
        {
          "indexed": false,
          "internalType": "address",
          "name": "buyer",
          "type": "address"
        },
        {
          "indexed": false,
          "internalType": "uint256",
          "name": "amount",
          "type": "uint256"
        }
      ],
      "name": "OrderFulfilled",
      "type": "event"
    },
    {
      "anonymous": false,
      "inputs": [
        {
          "indexed": false,
          "internalType": "uint256",
          "name": "id",
          "type": "uint256"
        },
        {
          "indexed": false,
          "internalType": "address",
          "name": "seller",
          "type": "address"
        },
        {
          "indexed": false,
          "internalType": "address",
          "name": "token",
          "type": "address"
        },
        {
          "indexed": false,
          "internalType": "uint256",
          "name": "amount",
          "type": "uint256"
        },
        {
          "indexed": false,
          "internalType": "uint256",
          "name": "pricePerToken",
          "type": "uint256"
        }
      ],
      "name": "OrderPlaced",
      "type": "event"
    },
    {
      "anonymous": false,
      "inputs": [
        {
          "indexed": true,
          "internalType": "address",
          "name": "previousOwner",
          "type": "address"
        },
        {
          "indexed": true,
          "internalType": "address",
          "name": "newOwner",
          "type": "address"
        }
      ],
      "name": "OwnershipTransferred",
      "type": "event"
    },
    {
      "inputs": [
        {
          "internalType": "address",
          "name": "",
          "type": "address"
        }
      ],
      "name": "allowedTokens",
      "outputs": [
        {
          "internalType": "bool",
          "name": "",
          "type": "bool"
        }
      ],
      "stateMutability": "view",
      "type": "function",
      "constant": true
    },
    {
      "inputs": [
        {
          "internalType": "uint256",
          "name": "",
          "type": "uint256"
        }
      ],
      "name": "histories",
      "outputs": [
        {
          "internalType": "uint256",
          "name": "id",
          "type": "uint256"
        },
        {
          "internalType": "address",
          "name": "seller",
          "type": "address"
        },
        {
          "internalType": "address",
          "name": "buyer",
          "type": "address"
        },
        {
          "internalType": "address",
          "name": "token",
          "type": "address"
        },
        {
          "internalType": "uint256",
          "name": "amount",
          "type": "uint256"
        },
        {
          "internalType": "uint256",
          "name": "pricePerToken",
          "type": "uint256"
        },
        {
          "internalType": "uint256",
          "name": "timestamp",
          "type": "uint256"
        }
      ],
      "stateMutability": "view",
      "type": "function",
      "constant": true
    },
    {
      "inputs": [],
      "name": "nextOrderId",
      "outputs": [
        {
          "internalType": "uint256",
          "name": "",
          "type": "uint256"
        }
      ],
      "stateMutability": "view",
      "type": "function",
      "constant": true
    },
    {
      "inputs": [
        {
          "internalType": "uint256",
          "name": "",
          "type": "uint256"
        }
      ],
      "name": "orders",
      "outputs": [
        {
          "internalType": "uint256",
          "name": "id",
          "type": "uint256"
        },
        {
          "internalType": "address",
          "name": "seller",
          "type": "address"
        },
        {
          "internalType": "address",
          "name": "token",
          "type": "address"
        },
        {
          "internalType": "uint256",
          "name": "amount",
          "type": "uint256"
        },
        {
          "internalType": "uint256",
          "name": "pricePerToken",
          "type": "uint256"
        },
        {
          "internalType": "uint256",
          "name": "timestamp",
          "type": "uint256"
        }
      ],
      "stateMutability": "view",
      "type": "function",
      "constant": true
    },
    {
      "inputs": [],
      "name": "owner",
      "outputs": [
        {
          "internalType": "address",
          "name": "",
          "type": "address"
        }
      ],
      "stateMutability": "view",
      "type": "function",
      "constant": true
    },
    {
      "inputs": [],
      "name": "renounceOwnership",
      "outputs": [],
      "stateMutability": "nonpayable",
      "type": "function"
    },
    {
      "inputs": [],
      "name": "ssgdToken",
      "outputs": [
        {
          "internalType": "contract IERC20",
          "name": "",
          "type": "address"
        }
      ],
      "stateMutability": "view",
      "type": "function",
      "constant": true
    },
    {
      "inputs": [
        {
          "internalType": "address",
          "name": "newOwner",
          "type": "address"
        }
      ],
      "name": "transferOwnership",
      "outputs": [],
      "stateMutability": "nonpayable",
      "type": "function"
    },
    {
      "inputs": [
        {
          "internalType": "address",
          "name": "token",
          "type": "address"
        },
        {
          "internalType": "bool",
          "name": "isAllowed",
          "type": "bool"
        }
      ],
      "name": "allowToken",
      "outputs": [],
      "stateMutability": "nonpayable",
      "type": "function"
    },
    {
      "inputs": [
        {
          "internalType": "address",
          "name": "token",
          "type": "address"
        },
        {
          "internalType": "uint256",
          "name": "amount",
          "type": "uint256"
        },
        {
          "internalType": "uint256",
          "name": "pricePerToken",
          "type": "uint256"
        }
      ],
      "name": "placeOrder",
      "outputs": [],
      "stateMutability": "nonpayable",
      "type": "function"
    },
    {
      "inputs": [
        {
          "internalType": "uint256",
          "name": "orderId",
          "type": "uint256"
        }
      ],
      "name": "cancelOrder",
      "outputs": [],
      "stateMutability": "nonpayable",
      "type": "function"
    },
    {
      "inputs": [
        {
          "internalType": "uint256",
          "name": "orderId",
          "type": "uint256"
        },
        {
          "internalType": "uint256",
          "name": "amount",
          "type": "uint256"
        }
      ],
      "name": "fulfillOrder",
      "outputs": [],
      "stateMutability": "nonpayable",
      "type": "function"
    },
    {
      "inputs": [],
      "name": "getAllOrders",
      "outputs": [
        {
          "components": [
            {
              "internalType": "uint256",
              "name": "id",
              "type": "uint256"
            },
            {
              "internalType": "address",
              "name": "seller",
              "type": "address"
            },
            {
              "internalType": "address",
              "name": "token",
              "type": "address"
            },
            {
              "internalType": "uint256",
              "name": "amount",
              "type": "uint256"
            },
            {
              "internalType": "uint256",
              "name": "pricePerToken",
              "type": "uint256"
            },
            {
              "internalType": "uint256",
              "name": "timestamp",
              "type": "uint256"
            }
          ],
          "internalType": "struct SellOrderBook.Order[]",
          "name": "",
          "type": "tuple[]"
        }
      ],
      "stateMutability": "view",
      "type": "function",
      "constant": true
    },
    {
      "inputs": [
        {
          "internalType": "address",
          "name": "seller",
          "type": "address"
        }
      ],
      "name": "getOrdersBySeller",
      "outputs": [
        {
          "components": [
            {
              "internalType": "uint256",
              "name": "id",
              "type": "uint256"
            },
            {
              "internalType": "address",
              "name": "seller",
              "type": "address"
            },
            {
              "internalType": "address",
              "name": "token",
              "type": "address"
            },
            {
              "internalType": "uint256",
              "name": "amount",
              "type": "uint256"
            },
            {
              "internalType": "uint256",
              "name": "pricePerToken",
              "type": "uint256"
            },
            {
              "internalType": "uint256",
              "name": "timestamp",
              "type": "uint256"
            }
          ],
          "internalType": "struct SellOrderBook.Order[]",
          "name": "",
          "type": "tuple[]"
        }
      ],
      "stateMutability": "view",
      "type": "function",
      "constant": true
    },
    {
      "inputs": [
        {
          "internalType": "address",
          "name": "addr",
          "type": "address"
        }
      ],
      "name": "getHistoryByAddress",
      "outputs": [
        {
          "components": [
            {
              "internalType": "uint256",
              "name": "id",
              "type": "uint256"
            },
            {
              "internalType": "address",
              "name": "seller",
              "type": "address"
            },
            {
              "internalType": "address",
              "name": "buyer",
              "type": "address"
            },
            {
              "internalType": "address",
              "name": "token",
              "type": "address"
            },
            {
              "internalType": "uint256",
              "name": "amount",
              "type": "uint256"
            },
            {
              "internalType": "uint256",
              "name": "pricePerToken",
              "type": "uint256"
            },
            {
              "internalType": "uint256",
              "name": "timestamp",
              "type": "uint256"
            }
          ],
          "internalType": "struct SellOrderBook.TradeHistory[]",
          "name": "",
          "type": "tuple[]"
        }
      ],
      "stateMutability": "view",
      "type": "function",
      "constant": true
    }
  ],
  "bytecode": "0x608060405260006004553480156200001657600080fd5b5060405162002ade38038062002ade83398181016040528101906200003c9190620001e4565b60016000819055506200006462000058620000ac60201b60201c565b620000b460201b60201c565b80600560006101000a81548173ffffffffffffffffffffffffffffffffffffffff021916908373ffffffffffffffffffffffffffffffffffffffff1602179055505062000216565b600033905090565b6000600160009054906101000a900473ffffffffffffffffffffffffffffffffffffffff16905081600160006101000a81548173ffffffffffffffffffffffffffffffffffffffff021916908373ffffffffffffffffffffffffffffffffffffffff1602179055508173ffffffffffffffffffffffffffffffffffffffff168173ffffffffffffffffffffffffffffffffffffffff167f8be0079c531659141344cd1fd0a4f28419497f9722a3daafe3b4186f6b6457e060405160405180910390a35050565b600080fd5b600073ffffffffffffffffffffffffffffffffffffffff82169050919050565b6000620001ac826200017f565b9050919050565b620001be816200019f565b8114620001ca57600080fd5b50565b600081519050620001de81620001b3565b92915050565b600060208284031215620001fd57620001fc6200017a565b5b60006200020d84828501620001cd565b91505092915050565b6128b880620002266000396000f3fe608060405234801561001057600080fd5b50600436106100f55760003560e01c80637a202cc111610097578063a85c38ef11610066578063a85c38ef14610266578063b9c7d4801461029b578063e744092e146102b7578063f2fde38b146102e7576100f5565b80637a202cc1146101ca5780637bea0d1c146101fa57806384fb8e05146102185780638da5cb5b14610248576100f5565b80635aa683de116100d35780635aa683de1461016a5780635bc35ae814610188578063715018a6146101a457806377e16afe146101ae576100f5565b80632a58b330146100fa578063514fcac71461011857806356564b7c14610134575b600080fd5b610102610303565b60405161010f9190611b88565b60405180910390f35b610132600480360381019061012d9190611bd4565b610309565b005b61014e60048036038101906101499190611bd4565b6105b1565b6040516101619796959493929190611c42565b60405180910390f35b610172610663565b60405161017f9190611d10565b60405180910390f35b6101a2600480360381019061019d9190611d8f565b610689565b005b6101ac6106ec565b005b6101c860048036038101906101c39190611dcf565b610700565b005b6101e460048036038101906101df9190611e22565b610a43565b6040516101f19190611f97565b60405180910390f35b610202610d20565b60405161020f9190611f97565b60405180910390f35b610232600480360381019061022d9190611e22565b610e53565b60405161023f91906120f6565b60405180910390f35b61025061127e565b60405161025d9190612118565b60405180910390f35b610280600480360381019061027b9190611bd4565b6112a8565b60405161029296959493929190612133565b60405180910390f35b6102b560048036038101906102b09190612194565b611334565b005b6102d160048036038101906102cc9190611e22565b611846565b6040516102de91906121e3565b60405180910390f35b61030160048036038101906102fc9190611e22565b611866565b005b60045481565b6103116118e9565b6002805490508110610358576040517f08c379a000000000000000000000000000000000000000000000000000000000815260040161034f9061225b565b60405180910390fd5b60006002828154811061036e5761036d61227b565b5b906000526020600020906006020190508060010160009054906101000a900473ffffffffffffffffffffffffffffffffffffffff1673ffffffffffffffffffffffffffffffffffffffff163373ffffffffffffffffffffffffffffffffffffffff1614610410576040517f08c379a0000000000000000000000000000000000000000000000000000000008152600401610407906122f6565b60405180910390fd5b8060020160009054906101000a900473ffffffffffffffffffffffffffffffffffffffff1673ffffffffffffffffffffffffffffffffffffffff1663a9059cbb8260010160009054906101000a900473ffffffffffffffffffffffffffffffffffffffff1683600301546040518363ffffffff1660e01b8152600401610497929190612316565b6020604051808303816000875af11580156104b6573d6000803e3d6000fd5b505050506040513d601f19601f820116820180604052508101906104da9190612354565b507f61b9399f2f0f32ca39ce8d7be32caed5ec22fe07a6daba3a467ed479ec6065828260405161050a9190611b88565b60405180910390a1600282815481106105265761052561227b565b5b90600052602060002090600602016000808201600090556001820160006101000a81549073ffffffffffffffffffffffffffffffffffffffff02191690556002820160006101000a81549073ffffffffffffffffffffffffffffffffffffffff02191690556003820160009055600482016000905560058201600090555050506105ae611938565b50565b600381815481106105c157600080fd5b90600052602060002090600702016000915090508060000154908060010160009054906101000a900473ffffffffffffffffffffffffffffffffffffffff16908060020160009054906101000a900473ffffffffffffffffffffffffffffffffffffffff16908060030160009054906101000a900473ffffffffffffffffffffffffffffffffffffffff16908060040154908060050154908060060154905087565b600560009054906101000a900473ffffffffffffffffffffffffffffffffffffffff1681565b610691611942565b80600660008473ffffffffffffffffffffffffffffffffffffffff1673ffffffffffffffffffffffffffffffffffffffff16815260200190815260200160002060006101000a81548160ff0219169083151502179055505050565b6106f4611942565b6106fe60006119c0565b565b6107086118e9565b600560009054906101000a900473ffffffffffffffffffffffffffffffffffffffff1673ffffffffffffffffffffffffffffffffffffffff168373ffffffffffffffffffffffffffffffffffffffff1603610798576040517f08c379a000000000000000000000000000000000000000000000000000000000815260040161078f906123cd565b60405180910390fd5b600082116107db576040517f08c379a00000000000000000000000000000000000000000000000000000000081526004016107d290612439565b60405180910390fd5b6000811161081e576040517f08c379a0000000000000000000000000000000000000000000000000000000008152600401610815906124a5565b60405180910390fd5b8273ffffffffffffffffffffffffffffffffffffffff166323b872dd3330856040518463ffffffff1660e01b815260040161085b939291906124c5565b6020604051808303816000875af115801561087a573d6000803e3d6000fd5b505050506040513d601f19601f8201168201806040525081019061089e9190612354565b5060026040518060c0016040528060045481526020013373ffffffffffffffffffffffffffffffffffffffff1681526020018573ffffffffffffffffffffffffffffffffffffffff1681526020018481526020018381526020014281525090806001815401808255809150506001900390600052602060002090600602016000909190919091506000820151816000015560208201518160010160006101000a81548173ffffffffffffffffffffffffffffffffffffffff021916908373ffffffffffffffffffffffffffffffffffffffff16021790555060408201518160020160006101000a81548173ffffffffffffffffffffffffffffffffffffffff021916908373ffffffffffffffffffffffffffffffffffffffff160217905550606082015181600301556080820151816004015560a0820151816005015550507f842740ca241c8cea19809d2824591efdd38a7e8e546b25122b975df6598e52c160045433858585604051610a169594939291906124fc565b60405180910390a160046000815480929190610a319061257e565b9190505550610a3e611938565b505050565b6060600060028054905090506000805b82811015610af5578473ffffffffffffffffffffffffffffffffffffffff1660028281548110610a8657610a8561227b565b5b906000526020600020906006020160010160009054906101000a900473ffffffffffffffffffffffffffffffffffffffff1673ffffffffffffffffffffffffffffffffffffffff1603610ae2578180610ade9061257e565b9250505b8080610aed9061257e565b915050610a53565b5060008167ffffffffffffffff811115610b1257610b116125c6565b5b604051908082528060200260200182016040528015610b4b57816020015b610b38611a8e565b815260200190600190039081610b305790505b5090506000805b84811015610d13578673ffffffffffffffffffffffffffffffffffffffff1660028281548110610b8557610b8461227b565b5b906000526020600020906006020160010160009054906101000a900473ffffffffffffffffffffffffffffffffffffffff1673ffffffffffffffffffffffffffffffffffffffff1603610d005760028181548110610be657610be561227b565b5b90600052602060002090600602016040518060c0016040529081600082015481526020016001820160009054906101000a900473ffffffffffffffffffffffffffffffffffffffff1673ffffffffffffffffffffffffffffffffffffffff1673ffffffffffffffffffffffffffffffffffffffff1681526020016002820160009054906101000a900473ffffffffffffffffffffffffffffffffffffffff1673ffffffffffffffffffffffffffffffffffffffff1673ffffffffffffffffffffffffffffffffffffffff1681526020016003820154815260200160048201548152602001600582015481525050838381518110610ce657610ce561227b565b5b60200260200101819052508180610cfc9061257e565b9250505b8080610d0b9061257e565b915050610b52565b5081945050505050919050565b60606002805480602002602001604051908101604052809291908181526020016000905b82821015610e4a57838290600052602060002090600602016040518060c0016040529081600082015481526020016001820160009054906101000a900473ffffffffffffffffffffffffffffffffffffffff1673ffffffffffffffffffffffffffffffffffffffff1673ffffffffffffffffffffffffffffffffffffffff1681526020016002820160009054906101000a900473ffffffffffffffffffffffffffffffffffffffff1673ffffffffffffffffffffffffffffffffffffffff1673ffffffffffffffffffffffffffffffffffffffff168152602001600382015481526020016004820154815260200160058201548152505081526020019060010190610d44565b50505050905090565b6060600060038054905090506000805b82811015610f81578473ffffffffffffffffffffffffffffffffffffffff1660038281548110610e9657610e9561227b565b5b906000526020600020906007020160010160009054906101000a900473ffffffffffffffffffffffffffffffffffffffff1673ffffffffffffffffffffffffffffffffffffffff161480610f5a57508473ffffffffffffffffffffffffffffffffffffffff1660038281548110610f1057610f0f61227b565b5b906000526020600020906007020160020160009054906101000a900473ffffffffffffffffffffffffffffffffffffffff1673ffffffffffffffffffffffffffffffffffffffff16145b15610f6e578180610f6a9061257e565b9250505b8080610f799061257e565b915050610e63565b5060008167ffffffffffffffff811115610f9e57610f9d6125c6565b5b604051908082528060200260200182016040528015610fd757816020015b610fc4611af0565b815260200190600190039081610fbc5790505b5090506000805b84811015611271578673ffffffffffffffffffffffffffffffffffffffff16600382815481106110115761101061227b565b5b906000526020600020906007020160010160009054906101000a900473ffffffffffffffffffffffffffffffffffffffff1673ffffffffffffffffffffffffffffffffffffffff1614806110d557508673ffffffffffffffffffffffffffffffffffffffff166003828154811061108b5761108a61227b565b5b906000526020600020906007020160020160009054906101000a900473ffffffffffffffffffffffffffffffffffffffff1673ffffffffffffffffffffffffffffffffffffffff16145b1561125e57600381815481106110ee576110ed61227b565b5b90600052602060002090600702016040518060e0016040529081600082015481526020016001820160009054906101000a900473ffffffffffffffffffffffffffffffffffffffff1673ffffffffffffffffffffffffffffffffffffffff1673ffffffffffffffffffffffffffffffffffffffff1681526020016002820160009054906101000a900473ffffffffffffffffffffffffffffffffffffffff1673ffffffffffffffffffffffffffffffffffffffff1673ffffffffffffffffffffffffffffffffffffffff1681526020016003820160009054906101000a900473ffffffffffffffffffffffffffffffffffffffff1673ffffffffffffffffffffffffffffffffffffffff1673ffffffffffffffffffffffffffffffffffffffff16815260200160048201548152602001600582015481526020016006820154815250508383815181106112445761124361227b565b5b6020026020010181905250818061125a9061257e565b9250505b80806112699061257e565b915050610fde565b5081945050505050919050565b6000600160009054906101000a900473ffffffffffffffffffffffffffffffffffffffff16905090565b600281815481106112b857600080fd5b90600052602060002090600602016000915090508060000154908060010160009054906101000a900473ffffffffffffffffffffffffffffffffffffffff16908060020160009054906101000a900473ffffffffffffffffffffffffffffffffffffffff16908060030154908060040154908060050154905086565b61133c6118e9565b6002805490508210611383576040517f08c379a000000000000000000000000000000000000000000000000000000000815260040161137a9061225b565b60405180910390fd5b6000600283815481106113995761139861227b565b5b9060005260206000209060060201905080600301548211156113f0576040517f08c379a00000000000000000000000000000000000000000000000000000000081526004016113e790612667565b60405180910390fd5b60008160040154836114029190612687565b9050600560009054906101000a900473ffffffffffffffffffffffffffffffffffffffff1673ffffffffffffffffffffffffffffffffffffffff166323b872dd338460010160009054906101000a900473ffffffffffffffffffffffffffffffffffffffff16846040518463ffffffff1660e01b8152600401611487939291906124c5565b6020604051808303816000875af11580156114a6573d6000803e3d6000fd5b505050506040513d601f19601f820116820180604052508101906114ca9190612354565b508160020160009054906101000a900473ffffffffffffffffffffffffffffffffffffffff1673ffffffffffffffffffffffffffffffffffffffff1663a9059cbb33856040518363ffffffff1660e01b815260040161152a929190612316565b6020604051808303816000875af1158015611549573d6000803e3d6000fd5b505050506040513d601f19601f8201168201806040525081019061156d9190612354565b507fcb3dc2a21e2f5a2d47f2012a02e3d088725e88da087b62c693f98dedac2733348433856040516115a1939291906126e1565b60405180910390a160036040518060e001604052808681526020018460010160009054906101000a900473ffffffffffffffffffffffffffffffffffffffff1673ffffffffffffffffffffffffffffffffffffffff1681526020013373ffffffffffffffffffffffffffffffffffffffff1681526020018460020160009054906101000a900473ffffffffffffffffffffffffffffffffffffffff1673ffffffffffffffffffffffffffffffffffffffff16815260200184600301548152602001846004015481526020014281525090806001815401808255809150506001900390600052602060002090600702016000909190919091506000820151816000015560208201518160010160006101000a81548173ffffffffffffffffffffffffffffffffffffffff021916908373ffffffffffffffffffffffffffffffffffffffff16021790555060408201518160020160006101000a81548173ffffffffffffffffffffffffffffffffffffffff021916908373ffffffffffffffffffffffffffffffffffffffff16021790555060608201518160030160006101000a81548173ffffffffffffffffffffffffffffffffffffffff021916908373ffffffffffffffffffffffffffffffffffffffff1602179055506080820151816004015560a0820151816005015560c082015181600601555050600082600301540361183857600284815481106117b8576117b761227b565b5b90600052602060002090600602016000808201600090556001820160006101000a81549073ffffffffffffffffffffffffffffffffffffffff02191690556002820160006101000a81549073ffffffffffffffffffffffffffffffffffffffff021916905560038201600090556004820160009055600582016000905550505b5050611842611938565b5050565b60066020528060005260406000206000915054906101000a900460ff1681565b61186e611942565b600073ffffffffffffffffffffffffffffffffffffffff168173ffffffffffffffffffffffffffffffffffffffff16036118dd576040517f08c379a00000000000000000000000000000000000000000000000000000000081526004016118d49061278a565b60405180910390fd5b6118e6816119c0565b50565b60026000540361192e576040517f08c379a0000000000000000000000000000000000000000000000000000000008152600401611925906127f6565b60405180910390fd5b6002600081905550565b6001600081905550565b61194a611a86565b73ffffffffffffffffffffffffffffffffffffffff1661196861127e565b73ffffffffffffffffffffffffffffffffffffffff16146119be576040517f08c379a00000000000000000000000000000000000000000000000000000000081526004016119b590612862565b60405180910390fd5b565b6000600160009054906101000a900473ffffffffffffffffffffffffffffffffffffffff16905081600160006101000a81548173ffffffffffffffffffffffffffffffffffffffff021916908373ffffffffffffffffffffffffffffffffffffffff1602179055508173ffffffffffffffffffffffffffffffffffffffff168173ffffffffffffffffffffffffffffffffffffffff167f8be0079c531659141344cd1fd0a4f28419497f9722a3daafe3b4186f6b6457e060405160405180910390a35050565b600033905090565b6040518060c0016040528060008152602001600073ffffffffffffffffffffffffffffffffffffffff168152602001600073ffffffffffffffffffffffffffffffffffffffff1681526020016000815260200160008152602001600081525090565b6040518060e0016040528060008152602001600073ffffffffffffffffffffffffffffffffffffffff168152602001600073ffffffffffffffffffffffffffffffffffffffff168152602001600073ffffffffffffffffffffffffffffffffffffffff1681526020016000815260200160008152602001600081525090565b6000819050919050565b611b8281611b6f565b82525050565b6000602082019050611b9d6000830184611b79565b92915050565b600080fd5b611bb181611b6f565b8114611bbc57600080fd5b50565b600081359050611bce81611ba8565b92915050565b600060208284031215611bea57611be9611ba3565b5b6000611bf884828501611bbf565b91505092915050565b600073ffffffffffffffffffffffffffffffffffffffff82169050919050565b6000611c2c82611c01565b9050919050565b611c3c81611c21565b82525050565b600060e082019050611c57600083018a611b79565b611c646020830189611c33565b611c716040830188611c33565b611c7e6060830187611c33565b611c8b6080830186611b79565b611c9860a0830185611b79565b611ca560c0830184611b79565b98975050505050505050565b6000819050919050565b6000611cd6611cd1611ccc84611c01565b611cb1565b611c01565b9050919050565b6000611ce882611cbb565b9050919050565b6000611cfa82611cdd565b9050919050565b611d0a81611cef565b82525050565b6000602082019050611d256000830184611d01565b92915050565b611d3481611c21565b8114611d3f57600080fd5b50565b600081359050611d5181611d2b565b92915050565b60008115159050919050565b611d6c81611d57565b8114611d7757600080fd5b50565b600081359050611d8981611d63565b92915050565b60008060408385031215611da657611da5611ba3565b5b6000611db485828601611d42565b9250506020611dc585828601611d7a565b9150509250929050565b600080600060608486031215611de857611de7611ba3565b5b6000611df686828701611d42565b9350506020611e0786828701611bbf565b9250506040611e1886828701611bbf565b9150509250925092565b600060208284031215611e3857611e37611ba3565b5b6000611e4684828501611d42565b91505092915050565b600081519050919050565b600082825260208201905092915050565b6000819050602082019050919050565b611e8481611b6f565b82525050565b611e9381611c21565b82525050565b60c082016000820151611eaf6000850182611e7b565b506020820151611ec26020850182611e8a565b506040820151611ed56040850182611e8a565b506060820151611ee86060850182611e7b565b506080820151611efb6080850182611e7b565b5060a0820151611f0e60a0850182611e7b565b50505050565b6000611f208383611e99565b60c08301905092915050565b6000602082019050919050565b6000611f4482611e4f565b611f4e8185611e5a565b9350611f5983611e6b565b8060005b83811015611f8a578151611f718882611f14565b9750611f7c83611f2c565b925050600181019050611f5d565b5085935050505092915050565b60006020820190508181036000830152611fb18184611f39565b905092915050565b600081519050919050565b600082825260208201905092915050565b6000819050602082019050919050565b60e082016000820151611ffb6000850182611e7b565b50602082015161200e6020850182611e8a565b5060408201516120216040850182611e8a565b5060608201516120346060850182611e8a565b5060808201516120476080850182611e7b565b5060a082015161205a60a0850182611e7b565b5060c082015161206d60c0850182611e7b565b50505050565b600061207f8383611fe5565b60e08301905092915050565b6000602082019050919050565b60006120a382611fb9565b6120ad8185611fc4565b93506120b883611fd5565b8060005b838110156120e95781516120d08882612073565b97506120db8361208b565b9250506001810190506120bc565b5085935050505092915050565b600060208201905081810360008301526121108184612098565b905092915050565b600060208201905061212d6000830184611c33565b92915050565b600060c0820190506121486000830189611b79565b6121556020830188611c33565b6121626040830187611c33565b61216f6060830186611b79565b61217c6080830185611b79565b61218960a0830184611b79565b979650505050505050565b600080604083850312156121ab576121aa611ba3565b5b60006121b985828601611bbf565b92505060206121ca85828601611bbf565b9150509250929050565b6121dd81611d57565b82525050565b60006020820190506121f860008301846121d4565b92915050565b600082825260208201905092915050565b7f496e76616c6964206f7264657220494400000000000000000000000000000000600082015250565b60006122456010836121fe565b91506122508261220f565b602082019050919050565b6000602082019050818103600083015261227481612238565b9050919050565b7f4e487b7100000000000000000000000000000000000000000000000000000000600052603260045260246000fd5b7f4f6e6c792073656c6c65722063616e2063616e63656c00000000000000000000600082015250565b60006122e06016836121fe565b91506122eb826122aa565b602082019050919050565b6000602082019050818103600083015261230f816122d3565b9050919050565b600060408201905061232b6000830185611c33565b6123386020830184611b79565b9392505050565b60008151905061234e81611d63565b92915050565b60006020828403121561236a57612369611ba3565b5b60006123788482850161233f565b91505092915050565b7f43616e6e6f742073656c6c2053534744206469726563746c7900000000000000600082015250565b60006123b76019836121fe565b91506123c282612381565b602082019050919050565b600060208201905081810360008301526123e6816123aa565b9050919050565b7f416d6f756e74206d7573742062652067726561746572207468616e2030000000600082015250565b6000612423601d836121fe565b915061242e826123ed565b602082019050919050565b6000602082019050818103600083015261245281612416565b9050919050565b7f5072696365206d7573742062652067726561746572207468616e203000000000600082015250565b600061248f601c836121fe565b915061249a82612459565b602082019050919050565b600060208201905081810360008301526124be81612482565b9050919050565b60006060820190506124da6000830186611c33565b6124e76020830185611c33565b6124f46040830184611b79565b949350505050565b600060a0820190506125116000830188611b79565b61251e6020830187611c33565b61252b6040830186611c33565b6125386060830185611b79565b6125456080830184611b79565b9695505050505050565b7f4e487b7100000000000000000000000000000000000000000000000000000000600052601160045260246000fd5b600061258982611b6f565b91507fffffffffffffffffffffffffffffffffffffffffffffffffffffffffffffffff82036125bb576125ba61254f565b5b600182019050919050565b7f4e487b7100000000000000000000000000000000000000000000000000000000600052604160045260246000fd5b7f496e73756666696369656e74206f7264657220616d6f756e7420617661696c6160008201527f626c650000000000000000000000000000000000000000000000000000000000602082015250565b60006126516023836121fe565b915061265c826125f5565b604082019050919050565b6000602082019050818103600083015261268081612644565b9050919050565b600061269282611b6f565b915061269d83611b6f565b9250817fffffffffffffffffffffffffffffffffffffffffffffffffffffffffffffffff04831182151516156126d6576126d561254f565b5b828202905092915050565b60006060820190506126f66000830186611b79565b6127036020830185611c33565b6127106040830184611b79565b949350505050565b7f4f776e61626c653a206e6577206f776e657220697320746865207a65726f206160008201527f6464726573730000000000000000000000000000000000000000000000000000602082015250565b60006127746026836121fe565b915061277f82612718565b604082019050919050565b600060208201905081810360008301526127a381612767565b9050919050565b7f5265656e7472616e637947756172643a207265656e7472616e742063616c6c00600082015250565b60006127e0601f836121fe565b91506127eb826127aa565b602082019050919050565b6000602082019050818103600083015261280f816127d3565b9050919050565b7f4f776e61626c653a2063616c6c6572206973206e6f7420746865206f776e6572600082015250565b600061284c6020836121fe565b915061285782612816565b602082019050919050565b6000602082019050818103600083015261287b8161283f565b905091905056fea2646970667358221220da18d6dfdcb59e27d466aee47c05e05d4b95cfd99d2c11506657af3f33e986a964736f6c634300080d0033",
  "immutableReferences": {},
  "source": "// SPDX-License-Identifier: MIT\r\npragma solidity ^0.8.0;\r\n\r\nimport \"@openzeppelin/contracts/token/ERC20/IERC20.sol\";\r\nimport \"@openzeppelin/contracts/security/ReentrancyGuard.sol\";\r\nimport \"@openzeppelin/contracts/access/Ownable.sol\";\r\n\r\ncontract SellOrderBook is ReentrancyGuard, Ownable {\r\n    struct Order {\r\n        uint256 id;\r\n        address seller;\r\n        address token;\r\n        uint256 amount;\r\n        uint256 pricePerToken; // price in SSGD\r\n        uint256 timestamp;\r\n    }\r\n\r\n    struct TradeHistory {\r\n        uint256 id;\r\n        address seller;\r\n        address buyer;\r\n        address token;\r\n        uint256 amount;\r\n        uint256 pricePerToken;\r\n        uint256 timestamp;\r\n    }\r\n\r\n    Order[] public orders;\r\n    TradeHistory[] public histories;\r\n    uint256 public nextOrderId = 0;\r\n    IERC20 public ssgdToken; // The SSGD token interface\r\n    mapping(address => bool) public allowedTokens;\r\n\r\n    event OrderPlaced(\r\n        uint256 id,\r\n        address seller,\r\n        address token,\r\n        uint256 amount,\r\n        uint256 pricePerToken\r\n    );\r\n    event OrderCancelled(uint256 id);\r\n    event OrderFulfilled(uint256 id, address buyer, uint256 amount);\r\n\r\n    constructor(address _ssgdTokenAddress) {\r\n        ssgdToken = IERC20(_ssgdTokenAddress); // Initialize the SSGD token contract\r\n    }\r\n\r\n    function allowToken(address token, bool isAllowed) external onlyOwner {\r\n        allowedTokens[token] = isAllowed;\r\n    }\r\n\r\n    function placeOrder(\r\n        address token,\r\n        uint256 amount,\r\n        uint256 pricePerToken\r\n    ) external nonReentrant {\r\n        require(token != address(ssgdToken), \"Cannot sell SSGD directly\"); // Prevent selling SSGD itself\r\n        require(amount > 0, \"Amount must be greater than 0\");\r\n        require(pricePerToken > 0, \"Price must be greater than 0\");\r\n\r\n        IERC20(token).transferFrom(msg.sender, address(this), amount);\r\n\r\n        orders.push(\r\n            Order({\r\n                id: nextOrderId,\r\n                seller: msg.sender,\r\n                token: token,\r\n                amount: amount,\r\n                pricePerToken: pricePerToken,\r\n                timestamp: block.timestamp\r\n            })\r\n        );\r\n\r\n        emit OrderPlaced(nextOrderId, msg.sender, token, amount, pricePerToken);\r\n        nextOrderId++;\r\n    }\r\n\r\n    function cancelOrder(uint256 orderId) external nonReentrant {\r\n        require(orderId < orders.length, \"Invalid order ID\");\r\n        Order storage order = orders[orderId];\r\n        require(msg.sender == order.seller, \"Only seller can cancel\");\r\n\r\n        IERC20(order.token).transfer(order.seller, order.amount);\r\n        emit OrderCancelled(orderId);\r\n\r\n        delete orders[orderId];\r\n    }\r\n\r\n    function fulfillOrder(\r\n        uint256 orderId,\r\n        uint256 amount\r\n    ) external nonReentrant {\r\n        require(orderId < orders.length, \"Invalid order ID\");\r\n        Order storage order = orders[orderId];\r\n        require(amount <= order.amount, \"Insufficient order amount available\");\r\n\r\n        uint256 totalCost = amount * order.pricePerToken;\r\n        ssgdToken.transferFrom(msg.sender, order.seller, totalCost);\r\n        IERC20(order.token).transfer(msg.sender, amount);\r\n\r\n        emit OrderFulfilled(orderId, msg.sender, amount);\r\n\r\n        histories.push(\r\n            TradeHistory({\r\n                id: orderId,\r\n                seller: order.seller,\r\n                buyer: msg.sender,\r\n                token: order.token,\r\n                amount: order.amount,\r\n                pricePerToken: order.pricePerToken,\r\n                timestamp: block.timestamp\r\n            })\r\n        );\r\n\r\n        if (order.amount == 0) {\r\n            delete orders[orderId];\r\n        }\r\n    }\r\n\r\n    function getAllOrders() external view returns (Order[] memory) {\r\n        return orders;\r\n    }\r\n\r\n    function getOrdersBySeller(\r\n        address seller\r\n    ) external view returns (Order[] memory) {\r\n        uint256 totalOrders = orders.length;\r\n        uint256 count = 0;\r\n\r\n        for (uint256 i = 0; i < totalOrders; i++) {\r\n            if (orders[i].seller == seller) {\r\n                count++;\r\n            }\r\n        }\r\n\r\n        Order[] memory sellerOrders = new Order[](count);\r\n        uint256 j = 0;\r\n        for (uint256 i = 0; i < totalOrders; i++) {\r\n            if (orders[i].seller == seller) {\r\n                sellerOrders[j] = orders[i];\r\n                j++;\r\n            }\r\n        }\r\n\r\n        return sellerOrders;\r\n    }\r\n\r\n    function getHistoryByAddress(\r\n        address addr\r\n    ) external view returns (TradeHistory[] memory) {\r\n        uint256 totalHis = histories.length;\r\n        uint256 count = 0;\r\n\r\n        for (uint256 i = 0; i < totalHis; i++) {\r\n            if (histories[i].seller == addr || histories[i].buyer == addr) {\r\n                count++;\r\n            }\r\n        }\r\n\r\n        TradeHistory[] memory addrHistories = new TradeHistory[](count);\r\n        uint256 j = 0;\r\n        for (uint256 i = 0; i < totalHis; i++) {\r\n            if (histories[i].seller == addr || histories[i].buyer == addr) {\r\n                addrHistories[j] = histories[i];\r\n                j++;\r\n            }\r\n        }\r\n\r\n        return addrHistories;\r\n    }\r\n}\r\n",
  "sourcePath": "E:\\Projects\\real-estate-contract\\contracts\\orderbook.sol",
  "compiler": {
    "name": "solc",
    "version": "0.8.13+commit.abaa5c0e.Emscripten.clang"
  },
  "schemaVersion": "3.4.16",
  "updatedAt": "2024-04-24T14:05:32.955Z",
  "networkType": "ethereum",
  "devdoc": {
    "kind": "dev",
    "methods": {
      "owner()": {
        "details": "Returns the address of the current owner."
      },
      "renounceOwnership()": {
        "details": "Leaves the contract without owner. It will not be possible to call `onlyOwner` functions. Can only be called by the current owner. NOTE: Renouncing ownership will leave the contract without an owner, thereby disabling any functionality that is only available to the owner."
      },
      "transferOwnership(address)": {
        "details": "Transfers ownership of the contract to a new account (`newOwner`). Can only be called by the current owner."
      }
    },
    "version": 1
  },
  "userdoc": {
    "kind": "user",
    "methods": {},
    "version": 1
  }
}